{
  "contractName": "Election",
  "abi": [
    {
      "inputs": [],
      "payable": false,
      "stateMutability": "nonpayable",
      "type": "constructor"
    },
    {
      "anonymous": false,
      "inputs": [
        {
          "indexed": false,
          "internalType": "uint256",
          "name": "indexed_candidateId",
          "type": "uint256"
        }
      ],
      "name": "addCandidateEvent",
      "type": "event"
    },
    {
      "anonymous": false,
      "inputs": [
        {
          "indexed": false,
          "internalType": "uint256",
          "name": "indexed_candidateId",
          "type": "uint256"
        }
      ],
      "name": "votedEvent",
      "type": "event"
    },
    {
      "constant": true,
      "inputs": [
        {
          "internalType": "uint256",
          "name": "",
          "type": "uint256"
        }
      ],
      "name": "candidates",
      "outputs": [
        {
          "internalType": "uint256",
          "name": "id",
          "type": "uint256"
        },
        {
          "internalType": "string",
          "name": "name",
          "type": "string"
        },
        {
          "internalType": "uint256",
          "name": "voteCount",
          "type": "uint256"
        }
      ],
      "payable": false,
      "stateMutability": "view",
      "type": "function"
    },
    {
      "constant": true,
      "inputs": [],
      "name": "candidatesCount",
      "outputs": [
        {
          "internalType": "uint256",
          "name": "",
          "type": "uint256"
        }
      ],
      "payable": false,
      "stateMutability": "view",
      "type": "function"
    },
    {
      "constant": true,
      "inputs": [],
      "name": "voteTotal",
      "outputs": [
        {
          "internalType": "uint256",
          "name": "",
          "type": "uint256"
        }
      ],
      "payable": false,
      "stateMutability": "view",
      "type": "function"
    },
    {
      "constant": true,
      "inputs": [
        {
          "internalType": "address",
          "name": "",
          "type": "address"
        }
      ],
      "name": "voters",
      "outputs": [
        {
          "internalType": "bool",
          "name": "",
          "type": "bool"
        }
      ],
      "payable": false,
      "stateMutability": "view",
      "type": "function"
    },
    {
      "constant": false,
      "inputs": [
        {
          "internalType": "string",
          "name": "_name",
          "type": "string"
        }
      ],
      "name": "addCandidate",
      "outputs": [],
      "payable": false,
      "stateMutability": "nonpayable",
      "type": "function"
    },
    {
      "constant": false,
      "inputs": [
        {
          "internalType": "uint256",
          "name": "_candidateId",
          "type": "uint256"
        }
      ],
      "name": "vote",
      "outputs": [],
      "payable": false,
      "stateMutability": "nonpayable",
      "type": "function"
    }
  ],
  "bytecode": "0x608060405234801561001057600080fd5b506100556040518060400160405280600581526020017f796172696e00000000000000000000000000000000000000000000000000000081525061009e60201b60201c565b6100996040518060400160405280600481526020017f696661740000000000000000000000000000000000000000000000000000000081525061009e60201b60201c565b610252565b6000600354146100f9576040517f08c379a0000000000000000000000000000000000000000000000000000000008152600401808060200182810382526031815260200180610ab86031913960400191505060405180910390fd5b60016000815480929190600101919050555060405180606001604052806001548152602001828152602001600081525060008060015481526020019081526020016000206000820151816000015560208201518160010190805190602001906101639291906101ad565b50604082015181600201559050507f256327ff1553bea8de188ecb0e6c936206cd7bd2f2a6ee189faed299944a03c56001546040518082815260200191505060405180910390a150565b828054600181600116156101000203166002900490600052602060002090601f016020900481019282601f106101ee57805160ff191683800117855561021c565b8280016001018555821561021c579182015b8281111561021b578251825591602001919060010190610200565b5b509050610229919061022d565b5090565b61024f91905b8082111561024b576000816000905550600101610233565b5090565b90565b610857806102616000396000f3fe608060405234801561001057600080fd5b50600436106100625760003560e01c80630121b93f146100675780632d35a8a2146100955780633477ee2e146100b35780633e808c9014610168578063462e91ec14610186578063a3ec138d14610241575b600080fd5b6100936004803603602081101561007d57600080fd5b810190808035906020019092919050505061029d565b005b61009d6104cc565b6040518082815260200191505060405180910390f35b6100df600480360360208110156100c957600080fd5b81019080803590602001909291905050506104d2565b6040518084815260200180602001838152602001828103825284818151815260200191508051906020019080838360005b8381101561012b578082015181840152602081019050610110565b50505050905090810190601f1680156101585780820380516001836020036101000a031916815260200191505b5094505050505060405180910390f35b610170610594565b6040518082815260200191505060405180910390f35b61023f6004803603602081101561019c57600080fd5b81019080803590602001906401000000008111156101b957600080fd5b8201836020820111156101cb57600080fd5b803590602001918460018302840111640100000000831117156101ed57600080fd5b91908080601f016020809104026020016040519081016040528093929190818152602001838380828437600081840152601f19601f82011690508083019250505050505050919291929050505061059a565b005b6102836004803603602081101561025757600080fd5b81019080803573ffffffffffffffffffffffffffffffffffffffff1690602001909291905050506106a9565b604051808215151515815260200191505060405180910390f35b600260003373ffffffffffffffffffffffffffffffffffffffff1673ffffffffffffffffffffffffffffffffffffffff16815260200190815260200160002060009054906101000a900460ff1615610340576040517f08c379a000000000000000000000000000000000000000000000000000000000815260040180806020018281038252602381526020018061076f6023913960400191505060405180910390fd5b60008111801561035257506001548111155b6103a7576040517f08c379a000000000000000000000000000000000000000000000000000000000815260040180806020018281038252602a8152602001806107c3602a913960400191505060405180910390fd5b60026001541015610403576040517f08c379a00000000000000000000000000000000000000000000000000000000081526004018080602001828103825260368152602001806107ed6036913960400191505060405180910390fd5b6001600260003373ffffffffffffffffffffffffffffffffffffffff1673ffffffffffffffffffffffffffffffffffffffff16815260200190815260200160002060006101000a81548160ff021916908315150217905550600080828152602001908152602001600020600201600081548092919060010191905055506003600081548092919060010191905055507ffff3c900d938d21d0990d786e819f29b8d05c1ef587b462b939609625b684b16816040518082815260200191505060405180910390a150565b60015481565b6000602052806000526040600020600091509050806000015490806001018054600181600116156101000203166002900480601f0160208091040260200160405190810160405280929190818152602001828054600181600116156101000203166002900480156105845780601f1061055957610100808354040283529160200191610584565b820191906000526020600020905b81548152906001019060200180831161056757829003601f168201915b5050505050908060020154905083565b60035481565b6000600354146105f5576040517f08c379a00000000000000000000000000000000000000000000000000000000081526004018080602001828103825260318152602001806107926031913960400191505060405180910390fd5b600160008154809291906001019190505550604051806060016040528060015481526020018281526020016000815250600080600154815260200190815260200160002060008201518160000155602082015181600101908051906020019061065f9291906106c9565b50604082015181600201559050507f256327ff1553bea8de188ecb0e6c936206cd7bd2f2a6ee189faed299944a03c56001546040518082815260200191505060405180910390a150565b60026020528060005260406000206000915054906101000a900460ff1681565b828054600181600116156101000203166002900490600052602060002090601f016020900481019282601f1061070a57805160ff1916838001178555610738565b82800160010185558215610738579182015b8281111561073757825182559160200191906001019061071c565b5b5090506107459190610749565b5090565b61076b91905b8082111561076757600081600090555060010161074f565b5090565b9056fe566f746520616c726561647920636173742066726f6d2074686973206164647265737343616e6e6f74207375626d69742063616e64696461746520616674657220666972737420766f7465207265636f7264656443616e646964617465204944206973206e6f7420696e2072616e6765206f662063616e646964617465734d757374206265206174206c6561737420322063616e64696461746573206265666f726520766f7465732063616e2062652063617374a265627a7a7231582024edd6ecef5f0985b5f52126a3f5dd6b2be6e55b797e545f52dc281682077c4c64736f6c6343000510003243616e6e6f74207375626d69742063616e64696461746520616674657220666972737420766f7465207265636f72646564",
  "source": "pragma solidity >=0.4.2;\r\n\r\n\r\ncontract Election {\r\n    // Constructor\r\n    constructor() public {\r\n        addCandidate(\"yarin\");\r\n        addCandidate(\"ifat\");\r\n    }\r\n\r\n     struct Candidate {\r\n        uint id;\r\n        string name;\r\n        uint voteCount;\r\n    }\r\n\r\n    // Read/write Candidates\r\n    mapping(uint => Candidate) public candidates;\r\n\r\n    // Store Candidates Count\r\n    uint public candidatesCount;\r\n\r\n\r\n    function addCandidate(string memory _name) public {\r\n        require(voteTotal == 0, \"Cannot submit candidate after first vote recorded\");\r\n        candidatesCount++;\r\n        candidates[candidatesCount] = Candidate(candidatesCount, _name, 0);\r\n\r\n        emit addCandidateEvent(candidatesCount);\r\n    }\r\n\r\n\r\n    event addCandidateEvent (uint indexed_candidateId);\r\n\r\n    // Read/write voters\r\n    mapping(address => bool) public voters;\r\n\r\n    uint public voteTotal;\r\n\r\n    // vote takes candidate id, \r\n    function vote(uint _candidateId) public {\r\n        // require that they haven't voted before\r\n        require(!voters[msg.sender], \"Vote already cast from this address\");\r\n\r\n        // require a valid candidate, making sure their index is in mapping\r\n        require(_candidateId > 0 && _candidateId <= candidatesCount, \"Candidate ID is not in range of candidates\");\r\n\r\n        require(candidatesCount >= 2, \"Must be at least 2 candidates before votes can be cast\");\r\n\r\n        // record that voter has voted, making their address key true\r\n        voters[msg.sender] = true;\r\n\r\n        // update candidate vote Count, for matched id, based on key\r\n        candidates[_candidateId].voteCount++;\r\n        voteTotal++;\r\n\r\n        // trigger voted event\r\n        emit votedEvent(_candidateId);\r\n    }\r\n\r\n    event votedEvent (uint indexed_candidateId);\r\n}",
  "sourcePath": "C:\\Users\\user\\Desktop\\election\\contracts\\Election.sol",
  "compiler": {
    "name": "solc",
    "version": "0.5.16+commit.9c3226ce.Emscripten.clang"
  },
  "schemaVersion": "3.4.4",
  "updatedAt": "2022-01-04T16:01:18.782Z",
  "networkType": "ethereum",
  "devdoc": {
    "methods": {}
  },
  "userdoc": {
    "methods": {}
  }
}